:1000000033C000004CC000004AC0000048C00000DF
:1000100046C0000044C0000042C0000040C00000D4
:100020003EC000003CC000003AC0000038C00000E4
:1000300036C0000034C0000032C0000030C00000F4
:100040002EC000002CC000002AC0000028C0000004
:1000500026C0000024C0000022C0000020C0000014
:100060001EC000001CC0000011241FBECFEFD8E04E
:10007000DEBFCDBF11E0A0E0B1E0EEE8F4E002C0E9
:1000800005900D92A430B107D9F721E0A4E0B1E0CA
:1000900001C01D92A430B207E1F7A0D0F6C1B0CFE5
:1000A0008F929F92AF92BF92CF92DF92EF92FF9288
:1000B000BC0180E090E0D0D04B015C0120E030E05A
:1000C0004AE755E457D16B017C0120E030E040E87D
:1000D0005FE392D088230CF120E03FEF4FE757E435
:1000E000C701B60143D11816A4F420E030E040E285
:1000F00051E4C501B4013ED183D06115710591F081
:1001000020E931E0C9010197F1F761507109D1F798
:1001100009C0C701B60174D002C061E070E0CB0134
:100120000197F1F7FF90EF90DF90CF90BF90AF90E5
:100130009F908F9008952A989EBD0DB407FEFDCF25
:100140008EBD0DB407FEFDCF2A9A81E090E0A8CFC6
:100150000895CF93DF93259A239A229A81E58CBD47
:1001600080E099E0E8DF87E09BE0E5DFC0910001F7
:10017000D091010180910201909103018C179D079C
:1001800050F0CE01D8DFD395809102019091030108
:100190008C179D07B0F781E09CE0CDDF81E090E017
:1001A0007FDFDF91CF9108958AE090E079CF0895C5
:1001B0001A9B02C0F9CF08951E9B02C0F5CF089587
:1001C0001D9B02C0F1CF08951B9B02C0EDCF089587
:1001D0001C9B02C0E9CF0895E7CF08955298569826
:1001E000559853985498B5DF809100019091010182
:1001F0008160A1DFDDDFFECF6CD008F481E00895DF
:1002000094D088F09F5790F0B92F9927B751A0F05C
:10021000D1F0660F771F881F991F1AF0BA95C9F79A
:1002200012C0B13081F09BD0B1E0089598C0672F23
:10023000782F8827B85F39F0B93FCCF3869577954A
:100240006795B395D9F73EF4909580957095619533
:100250007F4F8F4F9F4F0895E89409C097FB3EF45E
:1002600090958095709561957F4F8F4F9F4F992303
:10027000A9F0F92F96E9BB279395F6958795779581
:100280006795B795F111F8CFFAF4BB0F11F460FF41
:100290001BC06F5F7F4F8F4F9F4F16C0882311F099
:1002A00096E911C0772321F09EE8872F762F05C0AD
:1002B000662371F096E8862F70E060E02AF09A9548
:1002C000660F771F881FDAF7880F9695879597F93D
:1002D0000895990F0008550FAA0BE0E8FEEF1616D7
:1002E0001706E807F907C0F012161306E407F5072A
:1002F00098F0621B730B840B950B39F40A2661F09E
:10030000232B242B252B21F408950A2609F4A14040
:10031000A6958FEF811D811D089557FD9058440FBC
:10032000551F59F05F3F71F04795880F97FB991F54
:1003300061F09F3F79F08795089512161306140611
:10034000551FF2CF4695F1DF08C01616170618069E
:10035000991FF1CF86957105610508940895E89479
:10036000BB2766277727CB0197F90895B2DF08F4FA
:100370008FEF08950BD078C069D028F06ED018F0B8
:10038000952309F05AC05FC01124EACFC6DFA0F35D
:10039000959FD1F3950F50E0551F629FF001729F1A
:1003A000BB27F00DB11D639FAA27F00DB11DAA1F39
:1003B000649F6627B00DA11D661F829F2227B00D86
:1003C000A11D621F739FB00DA11D621F839FA00D11
:1003D000611D221F749F3327A00D611D231F849F61
:1003E000600D211D822F762F6A2F11249F575040B8
:1003F0008AF0E1F088234AF0EE0FFF1FBB1F661F53
:10040000771F881F91505040A9F79E3F510570F00B
:1004100014C0A6CF5F3FECF3983EDCF3869577954A
:100420006795B795F795E7959F5FC1F7FE2B880F06
:10043000911D9695879597F9089597F99F6780E89C
:1004400070E060E008959FEF80EC089500240A9426
:100450001616170618060906089500240A9412169F
:100460001306140605060895092E0394000C11F4D2
:10047000882352F0BB0F40F4BF2B11F460FF04C07F
:0E0480006F5F7F4F8F4F9F4F0895F894FFCF0F
:04048E000001000861
:00000001FF
