S014000046696E616C50726F6A6563742E737265634F
S113000043C000005CC000005AC0000058C000009B
S113001056C0000054C0000052C0000050C0000090
S11300204EC000004CC000004AC0000048C00000A0
S113003046C0000044C0000042C0000040C00000B0
S11300403EC000003CC000003AC0000038C00000C0
S113005036C0000034C0000032C0000030C00000D0
S11300602EC000002CC00000F10018013F01660101
S11300708D01B401DB0102023D025A0277029402AF
S1130080B102CE02EB02080311241FBECFEFD8E069
S1130090DEBFCDBF11E0A0E0B1E0E8EDFAE002C0C0
S11300A005900D92A231B107D9F721E0A2E1B1E0A8
S11300B001C01D92A631B207E1F7B5D30BC5A0CF9D
S11300C08F929F92AF92BF92CF92DF92EF92FF9264
S11300D0BC0180E090E0DFD34B015C0120E030E024
S11300E04AE755E466D46B017C0120E030E040E847
S11300F05FE3A1D388230CF120E03FEF4FE757E4FF
S1130100C701B60152D41816A4F420E030E040E24E
S113011051E4C501B4014DD492D36115710591F038
S113012020E931E0C9010197F1F761507109D1F774
S113013009C0C701B60183D302C061E070E0CB01FE
S11301400197F1F7FF90EF90DF90CF90BF90AF90C1
S11301509F908F9008952A989EBD0DB407FEFDCF01
S11301608EBD0DB407FEFDCF2A9A81E090E0A8CFA2
S11301700895CF93DF93259A239A229A81E58CBD23
S113018080E099E0E8DF87E09BE0E5DFC0910001D3
S1130190D091010180910E0190910F018C179D0760
S11301A050F0CE01D8DFD39580910E0190910F01CC
S11301B08C179D07B0F781E09CE0CDDF80910E01A4
S11301C090910F01C8DFDF91CF910895E091140160
S11301D0F0911501E830F10508F03AC1EC5CFF4FED
S11301E073C481E090E00090120102C0880F991F4F
S11301F00A94E2F720910E0130910F01AC014223E1
S11302005323452B49F08095909582239323909313
S11302100F0180930E0106C0822B932B90930F0144
S113022080930E0180910E0190910F0194CF089557
S113023081E090E00090120102C0880F991F0A9497
S1130240E2F720910C0130910D01AC0142235323BC
S1130250452B49F0809590958223932390930D012B
S113026080930C0106C0822B932B90930D018093F5
S11302700C0180910C0190910D016DCF089581E0E6
S113028090E00090120102C0880F991F0A94E2F7CF
S113029020910A0130910B01AC0142235323452BD9
S11302A049F0809590958223932390930B0180933A
S11302B00A0106C0822B932B90930B0180930A01B1
S11302C080910A0190910B0146CF089581E090E05E
S11302D00090120102C0880F991F0A94E2F720913E
S11302E0080130910901AC0142235323452B49F005
S11302F0809590958223932390930901809308011C
S113030006C0822B932B909309018093080180915E
S11303100801909109011FCF089581E090E00090B9
S1130320120102C0880F991F0A94E2F72091060176
S113033030910701AC0142235323452B49F08095AA
S1130340909582239323909307018093060106C01E
S1130350822B932B909307018093060180910601D1
S113036090910701F8CE089581E090E00090120189
S113037002C0880F991F0A94E2F72091040130917A
S11303800501AC0142235323452B49F080959095F8
S113039082239323909305018093040106C0822B4A
S11303A0932B909305018093040180910401909113
S11303B00501D1CE089581E090E00090120102C0C1
S11303C0880F991F0A94E2F72091020130910301EA
S11303D0AC0142235323452B49F080959095822309
S11303E09323909303018093020106C0822B932BE5
S11303F09093030180930201809102019091030183
S1130400AACE089581E090E00090120102C0880F06
S1130410991F0A94E2F72091000130910101AC0187
S113042042235323452B49F08095909582239323AF
S1130430909301018093000106C0822B932B90932B
S1130440010180930001809100019091010183CE0C
S11304500895BCDE8AEF90E033DEB8DE8AEF90E0E8
S11304602FCE0895E0911401F0911501E830F105C3
S113047008F0EAC0E45CFF4F27C381E090E00090FD
S1130480120102C0880F991F0A94E2F720910E010D
S113049030910F0182239323892B39F081E090E07E
S11304A090931101809310010895109211011092FC
S11304B01001089581E090E00090120102C0880FBD
S11304C0991F0A94E2F720910C0130910D018223C7
S11304D09323892B39F081E090E09093110180936C
S11304E0100108951092110110921001089581E0F5
S11304F090E00090120102C0880F991F0A94E2F75D
S113050020910A0130910B0182239323892B39F026
S113051081E090E09093110180931001089510926E
S1130520110110921001089581E090E000901201F1
S113053002C0880F991F0A94E2F7209108013091B4
S1130540090182239323892B39F081E090E0909371
S1130550110180931001089510921101109210015D
S1130560089581E090E00090120102C0880F991F65
S11305700A94E2F720910601309107018223932324
S1130580892B39F081E090E0909311018093100160
S113059008951092110110921001089581E090E0E5
S11305A00090120102C0880F991F0A94E2F720916B
S11305B004013091050182239323892B39F081E0D2
S11305C090E090931101809310010895109211010D
S11305D010921001089581E090E00090120102C091
S11305E0880F991F0A94E2F72091020130910301C8
S11305F082239323892B39F081E090E090931101B9
S11306008093100108951092110110921001089521
S113061081E090E00090120102C0880F991F0A94B3
S1130620E2F7209100013091010182239323892B69
S113063039F081E090E090931101809310010895C6
S1130640109211011092100108954A9B54C084E63F
S113065090E036DD4A9B3DC084E690E031DD4A9B64
S113066035C084E690E02CDD4A9B2CC084E690E003
S113067027DD4A9B23C084E690E022DD4A9B1AC012
S113068041E089B129B199B159B186FB882780F934
S1130690382F342725FB882780F98427832B93FB65
S11306A0992790F99427892B61F752955170541327
S11306B0E8CF0FC084E690E003DD0BC088EC90E047
S11306C0FFDC07C08CE291E0FBDC03C080E991E031
S11306D0F7DC8091100190911101019729F4109297
S11306E0110110921001089581E090E0909311019E
S11306F08093100108954E9B25C080911001909124
S11307001101019709F062DD8091140190911501A6
S11307109C01215031092AF03093150120931401D2
S113072005C0079690931501809314019BDE809178
S1130730100190911101019709F048DD84EF91E0D7
S1130740BFCC08954D9B22C080911001909111015E
S1130750019709F03BDDE2E1F1E0828193810196AA
S113076087709078992324F40197886F9F6F01967E
S11307709383828377DE8091100190911101019718
S113078009F024DD84EF91E09BCC08954B9B25C0B8
S11307908091100190911101019709F017DD80916A
S11307A01201909113019C01215031092AF03093D8
S11307B013012093120105C00796909313018093AF
S11307C0120150DE8091100190911101019709F0FE
S11307D0FDDC84EF91E074CC08954C9B22C08091A1
S11307E0100190911101019709F0F0DCE2E1F1E0D0
S11307F080819181019687709078992324F40197E0
S1130800886F9F6F0196918380832CDE8091100105
S113081090911101019709F0D9DC84EF91E050CC5B
S1130820089517CE08955298569855985398549809
S1130830A0DC0BDFFECF6CD008F481E0089594D0E7
S113084088F09F5790F0B92F9927B751A0F0D1F0B5
S1130850660F771F881F991F1AF0BA95C9F712C03F
S1130860B13081F09BD0B1E0089598C0672F782F04
S11308708827B85F39F0B93FCCF3869577956795AB
S1130880B395D9F73EF490958095709561957F4F17
S11308908F4F9F4F0895E89409C097FB3EF49095BD
S11308A08095709561957F4F8F4F9F4F9923A9F045
S11308B0F92F96E9BB279395F695879577956795D4
S11308C0B795F111F8CFFAF4BB0F11F460FF1BC018
S11308D06F5F7F4F8F4F9F4F16C0882311F096E9AB
S11308E011C0772321F09EE8872F762F05C0662359
S11308F071F096E8862F70E060E02AF09A95660F12
S1130900771F881FDAF7880F9695879597F90895CA
S1130910990F0008550FAA0BE0E8FEEF161617060C
S1130920E807F907C0F012161306E407F50798F074
S1130930621B730B840B950B39F40A2661F0232B8D
S1130940242B252B21F408950A2609F4A140A69509
S11309508FEF811D811D089557FD9058440F551F39
S113096059F05F3F71F04795880F97FB991F61F02D
S11309709F3F79F087950895121613061406551FA4
S1130980F2CF4695F1DF08C0161617061806991F10
S1130990F1CF86957105610508940895E894BB2705
S11309A066277727CB0197F90895B2DF08F48FEF14
S11309B008950BD078C069D028F06ED018F0952334
S11309C009F05AC05FC01124EACFC6DFA0F3959F97
S11309D0D1F3950F50E0551F629FF001729FBB2722
S11309E0F00DB11D639FAA27F00DB11DAA1F649FCE
S11309F06627B00DA11D661F829F2227B00DA11D81
S1130A00621F739FB00DA11D621F839FA00D611D06
S1130A10221F749F3327A00D611D231F849F600D27
S1130A20211D822F762F6A2F11249F5750408AF060
S1130A30E1F088234AF0EE0FFF1FBB1F661F771FEC
S1130A40881F91505040A9F79E3F510570F014C083
S1130A50A6CF5F3FECF3983EDCF3869577956795D8
S1130A60B795F795E7959F5FC1F7FE2B880F911D0A
S1130A709695879597F9089597F99F6780E870E0B0
S1130A8060E008959FEF80EC089500240A94161600
S1130A90170618060906089500240A941216130668
S1130AA0140605060895092E0394000C11F48823F6
S1130AB052F0BB0F40F4BF2B11F460FF04C06F5F12
S1130AC07F4F8F4F9F4F0895EE0FFF1F0590F491B6
S10B0AD0E02D0994F894FFCF16
S1130AD800010002000300040005000600070008E6
S1050AE8010007
S9030000FC
