S014000046696E616C50726F6A6563742E737265634F
S113000033C0000039C0000037C0000035C0000014
S113001033C0000031C000002FC000002DC000001C
S11300202BC0000029C0000027C0000025C000002C
S113003023C0000021C000001FC000001DC000003C
S11300401BC0000019C0000017C0000015C000004C
S113005013C0000011C000000FC000000DC000005C
S11300600BC0000009C0000011241FBECFEFD8E070
S1130070DEBFCDBFB4D076C2C3CF4F925F926F9232
S11300807F928F929F92AF92BF92CF92DF92EF9224
S1130090FF92CF93BC0180E090E04BD16B017C01D7
S11300A02BEA3AEA4AEA50E4FAD14B015C0120E037
S11300B030E040E85FE3A5D088230CF464C020E07E
S11300C030E040E850E4C701B601E9D12B013C011E
S11300D020E03FEF4FE757E4DED118160CF03EC0A6
S11300E020E030E04AE754E4C701B6018ED04B016A
S11300F05C0120E030E04AE755E4D1D16B017C019A
S113010020E030E040E85FE37CD088230CF120E07D
S11301103FEF4FE757E4C701B601BDD11816A4F469
S113012020E030E040E251E4C501B401B8D1D5D0BB
S11301306115710549F120E931E0C9010197F1F731
S113014061507109D1F720C0C701B601C6D002C001
S113015061E070E0CB010197F1F716C020E030E0D8
S11301604FE753E4C501B40196D118163CF4C3011A
S1130170B201B3D0CB010197F1F709C0C501B401B5
S1130180ACD0C62F01C0C1E06C2F6A95F1F7CF91B6
S1130190FF90EF90DF90CF90BF90AF909F908F90A3
S11301A07F906F905F904F90089588E592E065CFBF
S11301B00895289B02C0F9CF0895299B02C0F5CF6A
S11301C008952A9B02C0F1CF08952B9B02C0EDCF66
S11301D008952C9B02C0E9CF0895E7CF08958AB112
S11301E08C618AB984B1807E84B98BB18BB18BB1B7
S11301F0C0E1D0E081E090E040DF2197D9F7D9DF7A
S1130200FECFD4D008F481E008950CD00AC102D105
S113021040F0F9D030F021F45F3F19F0EBC05111F8
S113022034C1EEC00FD198F39923C9F35523B1F328
S1130230951B550BBB27AA2762177307840738F051
S11302409F5F5F4F220F331F441FAA1FA9F333D0B0
S11302500E2E3AF0E0E830D091505040E695001C64
S1130260CAF729D0FE2F27D0660F771F881FBB1F20
S1130270261737074807AB07B0E809F0BB0B802DFA
S1130280BF01FF2793585F4F2AF09E3F510568F046
S1130290B1C0FBC05F3FECF3983EDCF386957795E5
S11302A06795B795F7959F5FC9F7880F911D969548
S11302B0879597F90895E1E0660F771F881FBB1FA4
S11302C0621773078407BA0720F0621B730B840B51
S11302D0BA0BEE1F88F7E0950895BCD088F09F57BD
S11302E090F0B92F9927B751A0F0D1F0660F771F7E
S11302F0881F991F1AF0BA95C9F712C0B13081F05E
S1130300C3D0B1E00895C0C0672F782F8827B85FA5
S113031039F0B93FCCF3869577956795B395D9F7BE
S11303203EF490958095709561957F4F8F4F9F4FC8
S11303300895E89409C097FB3EF4909580957095D4
S113034061957F4F8F4F9F4F9923A9F0F92F96E91D
S1130350BB279395F695879577956795B795F11192
S1130360F8CFFAF4BB0F11F460FF1BC06F5F7F4F2F
S11303708F4F9F4F16C0882311F096E911C0772341
S113038021F09EE8872F762F05C0662371F096E84A
S1130390862F70E060E02AF09A95660F771F881F19
S11303A0DAF7880F9695879597F90895990F0008BD
S11303B0550FAA0BE0E8FEEF16161706E807F90733
S11303C0C0F012161306E407F50798F0621B730BCE
S11303D0840B950B39F40A2661F0232B242B252B4F
S11303E021F408950A2609F4A140A6958FEF811DF2
S11303F0811D089597F99F6780E870E060E0089593
S11304009FEF80EC089500240A9416161706180628
S11304100906089500240A94121613061406050604
S11304200895092E0394000C11F4882352F0BB0F95
S113043040F4BF2B11F460FF04C06F5F7F4F8F4FF8
S11304409F4F089557FD9058440F551F59F05F3F33
S113045071F04795880F97FB991F61F09F3F79F0E2
S113046087950895121613061406551FF2CF469564
S1130470F1DF08C0161617061806991FF1CF8695E6
S11304807105610508940895E894BB2766277727CA
S1130490CB0197F908958ADF08F48FEF08950BD004
S11304A0C0CFB1DF28F0B6DF18F0952309F0A2CF52
S11304B0A7CF1124EACFC6DFA0F3959FD1F3950F00
S11304C050E0551F629FF001729FBB27F00DB11DD4
S11304D0639FAA27F00DB11DAA1F649F6627B00D64
S11304E0A11D661F829F2227B00DA11D621F739F4D
S11304F0B00DA11D621F839FA00D611D221F749F5B
S11305003327A00D611D231F849F600D211D822FA1
S1130510762F6A2F11249F5750408AF0E1F08823E8
S11305204AF0EE0FFF1FBB1F661F771F881F9150F5
S11305305040A9F79E3F510570F05CCFA6CF5F3FB6
S1130540ECF3983EDCF3869577956795B795F79528
S1130550E7959F5FC1F7FE2B880F911D96958795B0
S10B056097F90895F894FFCF08
S9030000FC
